S0120000756172742D5461736B322E7372656364
S11300000C9434000C9451000C9402040C94510090
S11300100C9451000C9451000C9451000C942A043B
S11300200C9451000C9451000C9451000C94510008
S11300300C9451000C9451000C9451000C945100F8
S11300400C9451000C9451000C9451000C945100E8
S11300500C9451000C9451000C9451000C945100D8
S11300600C9451000C94510011241FBECFEFD8E022
S1130070DEBFCDBF11E0A0E0B1E0E6EEF9E002C0E2
S113008005900D92AA32B107D9F721E0AAE2B1E0B6
S113009001C01D92A439B207E1F70E9406030C9433
S11300A0F1040C940000672B09F0A1C08A3091057B
S11300B021F485B18E7F85B908958B30910521F4A3
S11300C085B18D7F85B908958C30910521F485B172
S11300D08B7F85B908958D30910521F485B1877F93
S11300E085B908958E30910521F485B18F7E85B947
S11300F008958F30910521F485B18F7D85B90895D8
S11301008031910521F485B18F7B85B908958131C2
S1130110910521F485B18F7785B9089584319105CE
S113012021F488B18E7F88B908958531910521F431
S113013088B18D7F88B908958631910521F488B1FD
S11301408B7F88B908958731910521F488B1877F21
S113015088B908958831910521F488B18F7E88B9D2
S113016008958931910521F488B18F7D88B9089566
S11301708A31910521F488B18F7B88B908958E3135
S1130180910521F48BB18E7F8BB908958F31910540
S113019021F48BB18D7F8BB908958032910521F4C0
S11301A08BB18B7F8BB908958132910521F48BB18A
S11301B0877F8BB908958232910521F48BB18F7EAC
S11301C08BB908958332910521F48BB18F7D8BB95E
S11301D008958432910521F48BB18F7B8BB90895F6
S11301E0859709F0A3C08BB18F778BB908958A30B6
S11301F0910521F485B1816085B908958B3091050D
S113020021F485B1826085B908958C30910521F47B
S113021085B1846085B908958D30910521F485B147
S1130220886085B908958E30910521F485B1806187
S113023085B908958F30910521F485B1806285B91F
S113024008958031910521F485B1806485B90895BC
S11302508131910521F485B1806885B9089584318F
S1130260910521F488B1816088B90895853191059B
S113027021F488B1826088B908958631910521F40A
S113028088B1846088B908958731910521F488B1D3
S1130290886088B908958831910521F488B1806116
S11302A088B908958931910521F488B1806288B9AB
S11302B008958A31910521F488B1806488B908953C
S11302C08E31910521F48BB181608BB908958F3102
S11302D0910521F48BB182608BB908958032910528
S11302E021F48BB184608BB908958132910521F496
S11302F08BB188608BB908958232910521F48BB15A
S113030080618BB908958332910521F48BB18062A9
S11303108BB908958432910521F48BB180648BB933
S11303200895859719F48BB180688BB90895CF939C
S1130330C82F80FF07C061E070E082E290E00E9475
S1130340530006C060E070E082E290E00E94530037
S1130350C1FF07C061E070E083E290E00E945300B7
S113036006C060E070E083E290E00E945300C2FFA8
S113037007C061E070E084E290E00E94530006C090
S113038060E070E084E290E00E945300C3FF07C085
S113039061E070E085E290E00E94530006C060E0F6
S11303A070E085E290E00E945300CF910895CF93CE
S11303B0C82F60E070E08BE090E00E9453008C2F27
S11303C00E94970161E070E08AE090E00E9453008F
S11303D08FE99FE00197F1F700C0000060E070E052
S11303E08AE090E00E9453008FE99FE00197F1F7C3
S11303F000C00000CF91089580E00E94D70181E001
S11304000E94D7010895CF93813061F480E8860F6C
S1130410C62FCF7082958F700E94D7018C2F0E94B7
S1130420D7010DC0823059F480EC860FC62FCF70EF
S113043082958F700E94D7018C2F0E94D701CF9193
S1130440089580E00E9497012FEF89EF90E02150FA
S113045080409040E1F700C0000083E00E94D70193
S11304608FE19EE40197F1F700C0000083E00E9451
S1130470D7018FED9BEA0197F1F700C0000083E0FC
S11304800E94D70182E00E94D70182E00E94D70136
S113049088E00E94D70180E00E94D7018CE00E948E
S11304A0D70180E00E94D70186E00E94D701089519
S11304B0CF93DF93D82FDF70C82FC07F61E070E047
S11304C08BE090E00E9453008C2F82958F700E94E5
S11304D0970161E070E08AE090E00E9453008FE9A8
S11304E09FE00197F1F700C0000060E070E08AE04F
S11304F090E00E9453008FE99FE00197F1F700C05C
S113050000008D2F0E94970161E070E08AE090E086
S11305100E9453008FE99FE00197F1F700C00000AB
S113052060E070E08AE090E00E9453008FE99FE071
S11305300197F1F700C00000DF91CF9108950F9368
S11305401F93CF93DF938C01C0E0D0E003C00E94DF
S113055058022196F801EC0FFD1F80818111F7CF1D
S1130560DF91CF911F910F91089587E68093C40086
S11305701092C500E1ECF0E0808188608083808186
S113058080618083E2ECF0E080818660808308955E
S11305908091C00088231CF48091C600089580E0F7
S11305A008959091C00095FFFCCF8093C6000895F4
S11305B081E088B9EFE9FFE03197F1F700C000006E
S11305C018B8FFEF27EA31E6F15020403040E1F758
S11305D000C0000088B9EFE6F7E13197F1F700C0F9
S11305E0000018B8FFEF27EA31E6F1502040304010
S11305F0E1F700C0000088B918B888B98FE99FE016
S11306000197F1F700C0000018B8089584B1806222
S113061084B90E94B50284B1806284B978940E943E
S113062075030E94210260E081E00E94030280E0E1
S113063091E00E949F0281E087B918B80E949B0351
S1130640882329F00E94A60390E00E94D1020E9410
S1130650C802809331018B3421F58FE091E00E9430
S11306609F0285B1806285B92FEF83EC99E0215018
S113067080409040E1F700C0000085B18F7D85B9CE
S11306802FEF83EC99E0215080409040E1F700C0C7
S113069000008FE4809331010E94D8020E94FC0183
S11306A0CDCF883559F68CE191E00E949F0285B147
S11306B0806285B92FEF8BE792E92150804090400A
S11306C0E1F700C0000085B18F7D85B92FEF83EC81
S11306D099E0215080409040E1F700C000008FE491
S11306E0809331010E94FC01A9CF10922A018AB1A2
S11306F0877F8AB98AB180618AB98BB188608BB9E6
S11307008BB180618BB982E08093B0001092B1000C
S11307101092B20080937000E9E6F0E080818B7F54
S113072080838081886080838CB382608CBB8DB32E
S113073082608DBB08958091300190912F018917BB
S113074010F0891B0895891B805C089580912F0106
S11307508F5F80932F0180912F01803411F41092C8
S11307602F01E0912F01F0E0ED5AFE4F80810895B2
S1130770823008F080E0811105C01092B1009CB372
S113078092609CBB80932A018DB382608DBB0895D7
S113079090912C0180912D01981781F180912A016B
S11307A081112EC08DB38D7F8DBB82E080932A0191
S11307B0E0912C01F0E0EE5CFE4F80818093930188
S11307C080912C018F5F80932C0180912C018032C9
S11307D011F410922C0110922B01E1EBF0E08081D6
S11307E0887F80831092B20080ED8093B30082E012
S11307F080838BB18F7E8BB981E0089580E008956A
S113080080E008951F920F920FB60F9211248F93D8
S1130810EF93FF9380912A018230A1F08DB38D7FF5
S11308208DBB81E080932A0110922E01E1EBF0E070
S11308308081887F80831092B20088E68093B30021
S113084082E08083FF91EF918F910F900FBE0F9004
S11308501F9018951F920F920FB60F9211242F9389
S11308603F934F935F936F937F938F939F93AF9334
S1130870BF93EF93FF9380912A01813009F06BC0FD
S113088080912E01811109C04B9B03C00E94B803C3
S113089097C080ED8093B30058C080912E018823C7
S11308A061F180912E01893040F54B9B12C020915B
S11308B02E0130E02150310981E090E002C0880F20
S11308C0991F2A95E2F790915201892B8093520146
S11308D03CC020912E0130E02150310981E090E0AC
S11308E002C0880F991F2A95E2F780959095909100
S11308F0520189238093520128C080912E018930AE
S1130900B9F4809130018F5F809330018091300180
S1130910803411F410923001E0913001F0E08091C4
S11309205201ED5AFE4F808381E00E94B8030DC04E
S113093080912E018E3049F410922A010E94C8033E
S113094081113EC00E94B8033BC080912E018F5F8D
S113095080932E0135C080912A01823089F58091DF
S11309602B0180912B018830A0F480919301209178
S11309702B0190E002C0959587952A95E2F780FFB8
S113098004C08BB180618BB916C08BB18F7E8BB9DB
S113099012C080912B01883021F48BB180618BB916
S11309A00AC080912B018A3031F480E00E94B803A0
S11309B00E94C80305C080912B018F5F80932B0197
S11309C0FF91EF91BF91AF919F918F917F916F9123
S11309D05F914F913F912F910F900FBE0F901F90F9
S10909E01895F894FFCF06
S11309E653776970652074686520436172640041B9
S11309F66363657373204772616E74004163636554
S10D0A0673732044656E6965640093
S9030000FC
