:020000040800F2
:100000000007002091010008110D0008590A00089E
:100010000D0D00083F0500088D15000800000000C8
:10002000000000000000000000000000BD0E0008FD
:100030007506000800000000130D0008E90F000815
:10004000AB010008AB010008AB010008AB010008E0
:10005000AB010008AB010008AB010008AB010008D0
:10006000AB010008AB010008AB010008AB010008C0
:10007000AB010008AB010008AB010008AB010008B0
:10008000AB010008AB010008AB010008AB010008A0
:10009000AB010008AB010008AB010008AB01000890
:1000A000AB010008AB010008AB010008AB01000880
:1000B000AB010008AB010008AB010008AB01000870
:1000C000AB010008AB010008AB010008AB01000860
:1000D000AB010008AB010008AB010008AB01000850
:1000E000AB010008AB010008AB01000800F002F80A
:1000F00000F03FF80AA090E8000C82448344AAF183
:100100000107DA4501D100F034F8AFF2090EBAE880
:100110000F0013F0010F18BFFB1A43F0010318473B
:10012000041C0000241C0000103A24BF78C878C1C9
:10013000FAD8520724BF30C830C144BF04680C60ED
:10014000704700000023002400250026103A28BF35
:1001500078C1FBD8520728BF30C148BF0B60704739
:10016000782900F07180002070471FB51FBD10B5C1
:1001700010BD00F0AAF91146FFF7F7FF01F018FAD9
:1001800000F0C8F903B4FFF7F2FF03BC00F0D0F9A8
:100190000948804709480047FEE7FEE7FEE7FEE71B
:1001A000FEE7FEE7FEE7FEE7FEE7FEE70448054957
:1001B000054A064B70470000ED0F0008ED000008EF
:1001C00000010020000700200003002000030020A1
:1001D0000FB41CB5074B06AA7B44694600900598EE
:1001E00000F05BF90020694600F06AF91CBC5DF87C
:1001F00014FB0000E502000070B504468569006844
:10020000C10601D5302600E02026C00707D070BD0A
:10021000D4E9012130469047206A401C20626D1EBF
:10022000F6D570BD70B5044685690078C00707D162
:1002300070BDD4E9012120209047206A401C206233
:100240006D1EF6D570BD000070B504460D46214602
:100250001068AFF300802188090502D50F4A7A445F
:1002600002E00E4A7A440E32002104F1240305E034
:1002700000F00F060009965D5E54491C0028F7D176
:1002800020780023000704D5702D02D009B1022385
:1002900011322046BDE8704000F0A1B8861A000077
:1002A0002DE9F05F894604464FF0000ADFF824B1DB
:1002B000FB44C0F820A02046E168884700287DD094
:1002C000252806D0D4E901219047206A401C2062ED
:1002D000F1E700255F462046E1688847202806466A
:1002E00007DB312E05D2B81910F8200C08B10543F0
:1002F000F1E7A80701D525F00405C4F81CA00027E4
:10030000C4F818A02A2E09D0304601F04AF938B3B3
:1003100004EB8708303EC8F8186019E059F8041B50
:10032000204604EB87029161E1688847012F064669
:1003300018D1E069002820DA25F020051DE0D8F862
:10034000180000EB800006EB40003038C8F81800B9
:100350002046E1688847064601F023F90028EED1DF
:10036000012F0AD02E2E08D12046E16888477F1C35
:100370000646022F45F02005C4DBA069002803DAF9
:10038000404245F00105A061E80701D025F01005C5
:10039000A6B1A6F14100192802D8203645F400651F
:1003A0004A463146204625604D46FFF7D9FE60B1EA
:1003B000012807D0ED1D25F0070000E007E000F15F
:1003C000080978E705F1040975E730467AE7206AFD
:1003D000BDE8F09F5C1A00007047704770472DE938
:1003E000F0470D4699469246044600F124080168FC
:1003F000880604D5E06921F01001216000E00120A9
:10040000A84201DD471B00E00027A1697A1902EB31
:100410000900081AA0612078C00602D42046FFF720
:10042000EBFE002608E0D4E901211AF80600904707
:10043000206A401C761C20624E45F4DB2078C00602
:100440000AD52046FFF7D8FE06E0D4E90121302086
:100450009047206A401C2062381EA7F10107F4DC97
:1004600007E0D4E9012118F805009047206A401CF4
:100470002062281EA5F10105F3DC2046FFF7D2FE1D
:100480002078000602D50220BDE8F0870120FBE7B6
:1004900001694A1C02610878704700B58FB0CDE948
:1004A00001310021059105497944CDE90310114638
:1004B0006846FFF7F5FE0FB000BD0000E5FFFFFF47
:1004C0000A6802F8010B0A607047754600F02CF8C4
:1004D000AE4605006946534620F00700854618B031
:1004E00020B5FFF763FEBDE820404FF000064FF057
:1004F00000074FF000084FF0000B21F00701AC4659
:10050000ACE8C009ACE8C009ACE8C009ACE8C00977
:100510008D46704710B50446AFF300802046BDE815
:100520001040FFF72FBE0000004870479C000020DD
:1005300001491820ABBEFEE726000200704700BF4D
:10054000FEE7000070B504460121484800F07FF93D
:10055000E8B900BF0121454800F079F90028F9D039
:1005600032250DE00121414800F071F938B93225FA
:1005700000BF01213D4800F06AF90028F9D06D1E46
:10058000012DEFDC601E3A4911F8200070BD0221F8
:10059000364800F05CF9F0B900BF0221334800F0A2
:1005A00056F90028F9D032250DE002212F4800F03D
:1005B0004EF938B9322500BF02212C4800F047F926
:1005C0000028F9D06D1E012DEFDC601E284901EBDB
:1005D00080004078DAE70421244800F038F9F0B9C7
:1005E00000BF0421214800F032F90028F9D032255B
:1005F0000DE004211D4800F02AF938B9322500BF6A
:1006000004211A4800F023F90028F9D06D1E012DAD
:10061000EFDC601E164901EB80008078B6E7082108
:10062000124800F014F9F0B900BF08210F4800F09B
:100630000EF90028F9D032250DE008210B4800F012
:1006400006F938B9322500BF0821084800F0FFF844
:100650000028F9D06D1E012DEFDC601E044901EB6E
:100660008000C07892E7002090E700000008014079
:10067000C81C00087047000010B504460CE00021BB
:10068000074800F009FD00BF054824300088B0F598
:100690007A7FF9D3601E84B2002CF0D110BD000027
:1006A000002C014010B504460BE00021064800F084
:1006B000F3FC00BF0448243000880028FAD0601EF4
:1006C00084B2002CF1D110BD002C014070B504465D
:1006D0001548007844EA00050421144800F0DFF9C9
:1006E00000BF1349114800F0B9F90028F9D00022E1
:1006F0004E210E4800F09CFA00BF0E490B4800F056
:10070000ADF90028F9D02946084800F09AFA00BF50
:100710000849891C054800F0A1F90028F8D00421F7
:10072000024800F0C8F970BD1300002000540040DA
:1007300001000300820007002DE9F0410246002578
:100740000026002000230024002791F803C00CF0AD
:100750000F0591F803C00CF0100CBCF1000F03D092
:1007600091F802C04CEA050591F800C0BCF1000FF9
:1007700031D0146800202BE04FF0010C0CFA00F38C
:10078000B1F800C00CEA03069E4220D183004FF06E
:100790000F0C0CFA03F7BC4305FA03FC4CEA040403
:1007A00091F803C0BCF1280F06D14FF0010C0CFAF0
:1007B00000FCC2F814C00AE091F803C0BCF1480F75
:1007C00005D14FF0010C0CFA00FCC2F810C0401C1F
:1007D0000828D1D31460B1F800C0BCF1FF0F34DD9C
:1007E000546800202EE000F1080C4FF0010808FAD0
:1007F0000CF3B1F800C00CEA03069E4221D183003D
:100800004FF00F0C0CFA03F7BC4305FA03FC4CEA5B
:10081000040491F803C0BCF1280F05D100F1080CC5
:1008200008FA0CF8C2F8148091F803C0BCF1480F24
:1008300007D100F1080C4FF0010808FA0CF8C2F8D3
:100840001080401C0828CED35460BDE8F0810246D9
:10085000002093680B400BB1012000E0002070479E
:10086000416170470161704708B50121042000F023
:1008700073FA10208DF803004FF4FE60ADF800000D
:1008800003208DF8020069460848FFF755FF48200D
:100890008DF803000F20ADF8000003208DF8020052
:1008A00069460248FFF748FF08BD00000008014004
:1008B00010B5012000F01DFB4FF4FA60FFF7F2FEC7
:1008C00010BD70B504460E4604F00704402141EA0D
:1008D000C40000F00EFB002503E0705D00F002FB99
:1008E0006D1C082DF9DB70BD10B50648007840F08E
:1008F000040004490870097841F0080000F0F9FA92
:1009000010BD00001000002010B5022000F0F1FA28
:100910004FF4FA60FFF7C6FE10BD000010B50446A4
:100920002F48047008202F49087000202E490870B5
:100930002B480078012805DD0846007840F00800C3
:10094000087005E02848007840F004002649087047
:1009500024480078FFF7BAFE4FF47A70FFF78CFE58
:10096000302000F015FE41F29410FFF79BFE30207E
:1009700000F00EFE41F29410FFF794FE302000F0DC
:1009800007FE41F29410FFF78DFE202000F000FEDC
:100990006420FFF787FE1449097841F0200000F039
:1009A000A8FA042011490870FFF79EFFFFF780FFA7
:1009B00002200F490870097841F0040000F099FA0C
:1009C00041F29410FFF76EFE0A490020FFF779FF0D
:1009D00009490120FFF775FFFFF796FF10BD0000E2
:1009E00012000020130000200F0000201000002043
:1009F00011000020140000201C00002010B5044647
:100A0000204600F06FFA10BD10B5044603E014F85C
:100A1000010B00F067FA20780028F8D110BD000023
:100A20007FB505460C460A4B0FCB8DE80F000948F1
:100A30000078844203DB07480078401EC4B21DF8EA
:100A400024102944C9B241F0800000F052FA7FBD61
:100A5000D81C00081200002000BFFEE770B5024657
:100A60000024002500230020958A138B1B0445EAEF
:100A7000030626F07F4404EA01068E4201D10120DC
:100A800000E0002070BD21B1028842F00102028026
:100A900004E002884FF6FE731A400280704721B1CD
:100AA000028842F48072028004E002884FF6FF63FD
:100AB0001A400280704721B1028842F4007202801D
:100AC00004E002884FF6FF531A400280704700008E
:100AD0002DE9F04385B004460D460026B1460427B3
:100AE000DFF8CC80A6884FF6C0700640684600F05C
:100AF00043F9DDF808802F48B8FBF0F01FFA80F9C1
:100B000046EA0906A68020884FF6FE71084020803C
:100B100000262949286888420CD828684000B8FB7C
:100B2000F0F087B2042F00DA04273E4309F10100F8
:100B3000208427E0E8884BF6FF71884206D12868B8
:100B400000EB4000B8FBF0F087B209E0286800EB4A
:100B5000C00101EB0010B8FBF0F087B247F480470A
:100B6000C7F30B0008B947F0010747F400400643FC
:100B70004FF4967009FB00F04FF47A7190FBF1F09E
:100B8000401C2084A683208840F001002080268815
:100B90004FF6F5300640A888698908430643268049
:100BA000A88929890843208105B0BDE8F0830000A9
:100BB00000127A0040420F00A086010000B585B007
:100BC0000421082000F0C8F80421C80400F0B4F89B
:100BD000C020ADF8100003208DF812001C208DF805
:100BE000130004A90F48FFF7A7FD0020ADF804008B
:100BF0004BF6FF70ADF806000020ADF808004FF48A
:100C00008060ADF80A000001ADF80C0006480090C5
:100C100069460648FFF75CFF04210448FFF733FFED
:100C200005B000BD000C0140A0860100005400404A
:100C300012B141F0010102E04FF6FE73194001824A
:100C4000704701827047000010B520212E48FFF741
:100C500009FE40212C48FFF705FE80212A48FFF7B6
:100C600001FE10212848FFF7FBFD0120FFF76AFC79
:100C700004460CB1204610BD10212348FFF7F2FDB9
:100C800040212148FFF7EEFD80211F48FFF7EAFDD4
:100C900020211D48FFF7E4FD0220FFF753FC044626
:100CA0000CB12046E7E710211748FFF7DBFD2021B4
:100CB0001548FFF7D7FD80211348FFF7D3FD4021EA
:100CC0001148FFF7CDFD0320FFF73CFC04460CB1B3
:100CD0002046D0E710210C48FFF7C4FD20210A4828
:100CE000FFF7C0FD40210848FFF7BCFD8021064802
:100CF000FFF7B6FD0420FFF725FC04460CB12046A3
:100D0000B9E70020B7E700000008014000BFFEE798
:100D10007047704710B5044644F00400FFF7D6FC56
:100D20001420FFF7BFFC24F00400FFF7CFFC1420D1
:100D3000FFF7B8FC10BD000029B1064AD269024392
:100D4000044BDA6104E0034AD2698243014BDA6161
:100D5000704700000010024029B1064A9269024320
:100D6000044B9A6104E0034A92698243014B9A6101
:100D7000704700000010024030B50021002200241E
:100D800000232D4D6D6805F00C0121B1042905D01B
:100D9000082923D105E0294D056022E0274D056093
:100DA0001FE0254D6D6805F47012234D6D6805F444
:100DB0008034022505EB92421CB9214D5543056054
:100DC0000BE01D4D6D6805F400351DB11C4D5543FC
:100DD000056002E0194D5543056002E0174D0560BE
:100DE00000BF00BF144D6D6805F0F0010909154DF5
:100DF0006B5C0568DD4045600F4D6D6805F4E06192
:100E0000090A104D6B5C4568DD4085600A4D6D68D0
:100E100005F46051C90A0B4D6B5C4568DD40C56047
:100E2000054D6D6805F44041890B074D6B5CC56845
:100E3000B5FBF3F5056130BD0010024000127A00E9
:100E400000093D00240000203400002021B1028868
:100E500042F04002028004E002884FF6BF731A405D
:100E6000028070470246002013890B400BB101201D
:100E700000E00020704701468889704781817047F3
:100E800010B50022028802F441520B884C8823439B
:100E90008C882343CC8823430C8923434C892343E8
:100EA0008C892343CC8923431A430280838B4FF2DE
:100EB000FF74234083830B8A038210BD70472DE9A2
:100EC000F04104460D4604F0F006F02000EA041755
:100ED00046EA050000F05CFB47EA050000F058FB1D
:100EE000BDE8F08110B5044601212046FFF7E7FF79
:100EF00010BD10B5044600212046FFF7E0FF10BDED
:100F000010B500F001F810BD0CB500200190009064
:100F10003348006840F480303149086000BF3048F1
:100F2000006800F4003000900198401C0190009887
:100F300018B90198B0F5A06FF1D12948006800F404
:100F4000003010B10120009001E0002000900098D6
:100F5000012843D12348006840F01000214908606F
:100F60000846006820F0070008600846006840F066
:100F7000020008601A4840681949486008464068FD
:100F800048600846406840F4806048600846406811
:100F900020F47C1048600846406840F4E81048603F
:100FA0000846006840F08070086000BF0C48006888
:100FB00000F000700028F9D00948406820F00300D4
:100FC000074948600846406840F00200486000BF9A
:100FD0000348406800F00C000828F9D10CBD00005F
:100FE00000100240002002407047000010B5134876
:100FF000006840F001001149086008464068104947
:1010000008400E494860084600680E4908400B49F0
:1010100008600846006820F48020086008464068A0
:1010200020F4FE0048604FF41F008860FFF768FF5F
:101030004FF000600449086010BD0000001002403D
:101040000000FFF8FFFFF6FE08ED00E00EB50121FD
:10105000C802FFF781FE0020ADF802004FF6FF70D6
:10106000ADF804004720ADF800006946034800F0E1
:1010700015F80121014800F003F80EBD002C0140D5
:1010800021B1028842F00102028004E002884FF69A
:10109000FE731A40028070478184704700220288E4
:1010A0001D4B98420ED01D4B98420BD0B0F1804F93
:1010B00008D01B4B984205D01A4B984202D01A4BCD
:1010C000984204D14FF68F731A404B881A43174B3E
:1010D000984207D0164B984204D04FF6FF431A406F
:1010E000CB881A4302808B8883850B8803850A4B43
:1010F00098420BD0094B984208D00E4B984205D02D
:101100000D4B984202D00D4B984201D10B7A0386C9
:101110000123838270470000002C0140003401400D
:101120000004004000080040000C00400010004097
:1011300000140040004001400044014000480140CC
:1011400010B5142000F0CEF804460321142000F05E
:1011500004F910BD2DE9FC410446002700210D20B3
:1011600000F09EF9932020702020607001A8234693
:101170000222214600900C2000F0FCF806465EB9E1
:10118000002503E0605D4740681CC5B2042DF9DB13
:10119000605DB84200D002263046BDE8FC812DE9F2
:1011A000F0410746884615460421052000F039F82D
:1011B00080210A2000F0D1F8002405E0395D0920E3
:1011C00000F06EF9601CC4B24445F7DB0321012036
:1011D00000F066F9FF2400BF052000F083F8064602
:1011E000601EC4B21CB106F004000028F4D0222016
:1011F00000F078F82870212000F074F86870BDE8DD
:10120000F08170B504462146262000F087F8054697
:101210001DB92046FFF79EFF054600F00FF828464F
:1012200070BD70B505460C46284600F05BF820EA14
:1012300004063146284600F033F970BD0EB5502043
:101240008DF8040000208DF805000DF10602022142
:1012500001A8FFF7A4FF02A801AB042201A9009096
:101260000C2000F087F80EBD10B500F01FF800F05C
:101270002FF900F06CF88D212A2000F011F93E21A1
:101280002B2000F00DF91E212D2000F009F900217E
:101290002C2000F005F94021152000F001F93D2136
:1012A000112000F0FDF8FFF74BFF10BD08B501213C
:1012B0000820FFF751FD10208DF8030003208DF862
:1012C00002004FF48050ADF8000069460448FFF773
:1012D00033FA4FF480510248FFF7C4FA08BD00000A
:1012E000000C014070B504464FF480510A48FFF7E6
:1012F000B7FA7E2101EA440141F0800000F02AF9AA
:10130000002000F027F905464FF480510248FFF70E
:10131000A9FA284670BD0000000C01407CB50646C5
:101320000C4607210D2000F0BBF8267001A82346CB
:101330000122214600900C2000F01CF805461DB942
:10134000BDF80400102800D0022528467CBD10B549
:101350000F21012000F0A4F810BD70B505460C4621
:101360002846FFF7BFFF40EA04063146284600F052
:1013700097F870BD2DE9FE4F0646884691469A467D
:10138000DDF830B0022002900020019000900C2E79
:1013900006D00E2E09D1122001901020009005E0F9
:1013A000772001903020009000E000BF00BF01983E
:1013B00040F08001022000F073F880210420FFF744
:1013C00030FF80210A20FFF7C8FF0021012000F034
:1013D00067F8002506E018F80510092000F060F80D
:1013E000681C85B24D45F6DB3146012000F058F807
:1013F0000C2E03D180210D20FFF7AFFF4FF4FA65CB
:1014000000BF0420FFF76EFF0446681E85B235B1A9
:1014100004F0010018B9009820400028F1D0802184
:101420000D20FFF7FEFE002D36D00620FFF75AFFF5
:1014300000F01B0070BB002002900198204000F0DB
:10144000010008B1012002900C2E25D10A20FFF7DF
:1014500049FF04460C20FFF745FF00F007072FB1B6
:10146000601E07EBC000ABF8000002E0E000ABF844
:10147000000004B90124102C00DD1024002506E032
:101480000920FFF72FFF0AF80500681C85B2A54266
:10149000F6DB01E0022002900298BDE8FE8F00001A
:1014A00070B504460D464FF480510848FFF7D8F94F
:1014B0007E2101EA440000F04DF8284600F04AF889
:1014C0004FF480510148FFF7CDF970BD000C014089
:1014D00000B587B001218803FFF72EFC0121082009
:1014E000FFF73AFC18208DF81B0003208DF81A0036
:1014F0004FF46040ADF8180006A91448FFF71CF936
:101500000020ADF804004FF48270ADF80600002012
:10151000ADF80800ADF80A00ADF80C004FF400700B
:10152000ADF80E001020ADF810000020ADF812004C
:101530000720ADF8140001A90548FFF7A1FC01211F
:101540000348FFF783FC07B000BD0000000C01401A
:101550000038004010B5044600BF02210A48FFF7DA
:1015600081FC0028F9D021460748FFF787FC00BF1F
:1015700001210548FFF776FC0028F9D00248FFF763
:101580007AFCC0B210BD00000038004000BFFEE78A
:1015900010B504462046FFF799F82046FFF7BAFB3E
:1015A00010BD30380A2801D2012070470020704752
:1015B0001FB5FFF759F9FFF749FDFFF7FFFA0220C2
:1015C000FFF7ACF9FFF774F9FFF74EFE69E34FF44C
:1015D0008061FE48FFF744F9FFF76AF90021032014
:1015E000FFF71EFAFAA0FFF70FFA4FF4FA70FFF7B1
:1015F00043F801210020FFF713FAF8A0FFF704FADF
:1016000040F2DC50FFF738F8FFF752F900210846A6
:10161000FFF706FAF6A0FFF7F7F940F2DC50FFF704
:101620002BF8FFF745F900210846FFF7F9F9F5A077
:10163000FFF7EAF901210020FFF7F2F9F6A0FFF722
:10164000E3F9002502E0FFF7FFFA0546002DFAD086
:10165000312D7CD1322644E1FFF72AF900210846DA
:10166000FFF7DEF9F1A0FFF7CFF901210420FFF722
:10167000D7F9F2A0FFF7C8F9002420E0042101EB1C
:101680004401C8B20121FFF7CBF9002502E0FFF7C2
:10169000DBFA0546002DFAD003A805552846FFF7CA
:1016A000ADF9C820FEF7E8FF042101EB4401C8B200
:1016B0000121FFF7B5F92A20FFF7A0F9641C042CDB
:1016C000DCDB4FF4FA70FEF7D7FF0020DD4908702D
:1016D00000BF0BE003A9095CDB4A125C914204D114
:1016E000D8490978491CD74A1170401C0428F1DBFD
:1016F000FFF7DEF800210846FFF792F9D14800789D
:10170000042871D1D1A0FFF77FF94FF48061AF4871
:10171000FFF7A8F8C820FEF7AFFF4FF48061AB4891
:10172000FFF79EF8C820FEF7A7FF4FF48061A74897
:10173000FFF798F8C820FEF79FFF4FF48061A34899
:10174000FFF78EF84FF47A70FEF796FF00E0CBE0DB
:10175000FFF7AEF800210846FFF762F9BFA0FFF7D8
:1017600053F94FF480719948FFF77CF84FF40071FA
:101770009648FFF775F840F6B830FEF77DFFFFF7A3
:1017800097F800210846FFF74BF9B8A0FFF73CF99E
:101790004FF480718D48FFF763F84FF400718B4868
:1017A000FFF75EF84FF4FA60FEF766FFFFF780F888
:1017B00000210846FFF734F9B0A0FFF725F94FF4F0
:1017C00080718248FFF74CF84FF400717F48FFF7B3
:1017D00049F840F6B830FEF74FFF4FF400717B48F0
:1017E000FFF73EF87EE0FFE7302E63D14FF48061D3
:1017F0007648FFF737F8FFF75BF800210846FFF758
:101800000FF9A2A0FFF700F94FF4FA70FEF734FFCA
:101810000A244CE0092C28DD0A2094FBF0F0C7B222
:101820000A2094FBF0F100FB114000F0FF080021BA
:101830000D20FFF7F5F807F13001C8B2FFF7DEF829
:1018400000210E20FFF7ECF808F13001C8B2FFF7D5
:10185000D5F800210F20FFF7E3F87320FFF7CEF84B
:101860004FF47A70FEF708FF20E000210D20FFF70B
:10187000D7F82020FFF7C2F800210E20FFF7D0F89C
:1018800004F13001C8B2FFF7B9F800210F20FFF7CB
:10189000C7F87320FFF7B2F84FF47A70FEF7ECFE4A
:1018A000012C03D1A1024948FEF7DAFF641E002C87
:1018B000B0DC17E079A0FFF7A7F801210020FFF7BF
:1018C000AFF83046FFF79AF801210220FFF7A8F899
:1018D00076A0FFF799F84FF47A70FEF7CDFE701EF0
:1018E000C6B2B9E600BFDBE1322DFCD13226D4E12D
:1018F000FEF7DEFF00210846FFF792F86EA0FFF723
:1019000083F800BF7048FFF77CFC0028FAD16E48CE
:1019100000796D49C9786C4A9278CDE9002102902E
:1019200069484378027869A16E48FEF751FC0121AD
:101930000020FFF775F86B48FFF766F8C820FEF740
:101940009BFE03240AE0E0B20121FFF769F82A2098
:10195000FFF754F83220FEF78FFE641C0D2CF2DBEB
:10196000FEF7A6FF00210846FFF75AF800270020DF
:1019700008E05549095C5C4A125C914201D1791C2E
:10198000CFB2401C0528F4DB052F1DD157A0FFF76F
:101990003BF84FF480610D48FEF764FFC820FEF766
:1019A0006BFE4FF480610948FEF75AFFC820FEF72E
:1019B00063FE4FF480610548FEF754FFC820FEF730
:1019C0005BFE4FF4806197E0E7E000000008014013
:1019D00042544C20544B48544E000000446F6F72E8
:1019E000204C6F636B2053797374656D00000000A9
:1019F00043686F6F7365204D6F6465204F70656E2F
:101A000000000000312E456E7465722050617373C2
:101A1000576F726400000000322E5363616E2059CC
:101A20006F7572204361726400000000456E74653A
:101A3000722050617373576F726400005F205F20E3
:101A40005F205F000900002000000020436F7272D9
:101A5000656374205061737300000000446F6F72FF
:101A6000206F70656E696E672E2E2E0057656C6351
:101A70006F6D65204261636B20210000446F6F72BF
:101A800020636C6F73696E672E2E2E00547279205E
:101A9000616761696E20696E3A000000496E636F8C
:101AA00072726563742050617373000074696D65B0
:101AB000206C6566740000005363616E20796F7559
:101AC00072206361726400000A00002049443A25D4
:101AD000303258253032582530325825303258258A
:101AE000303258003800002004000020436F72722A
:101AF00065637420494400006A48FEF7B1FE4FF464
:101B00007A70FEF7B9FDFEF7D3FE00210846FEF716
:101B100087FFAFF2B800FEF777FF4FF4807161489E
:101B2000FEF7A0FE4FF400715E48FEF799FE40F606
:101B3000B830FEF7A1FDFEF7BBFEAFF2D000FEF716
:101B400063FF4FF480715748FEF78AFE4FF400712F
:101B50005448FEF785FE4FF4FA60FEF78DFDFEF760
:101B6000A7FE00210846FEF75BFFAFF2F000FEF78C
:101B70004BFF4FF480714B48FEF772FE4FF400713B
:101B80004848FEF76FFE40F6B830FEF775FD4FF49B
:101B900000714448FEF764FE80E0302E65D14FF4BA
:101BA00080614048FEF75EFEFEF782FE0021084697
:101BB000FEF736FFAFF22C10FEF726FF4FF4FA7057
:101BC000FEF75AFD0A244DE0092C29DD0A2094FB7A
:101BD000F0F000F0FF080A2094FBF0F100FB114048
:101BE00000F0FF0900210D20FEF71AFF08F1300177
:101BF000C8B2FEF703FF00210E20FEF711FF09F126
:101C00003001C8B2FEF7FAFE00210F20FEF708FFF0
:101C10007320FEF7F3FE4FF47A70FEF72DFD20E0FF
:101C200000210D20FEF7FCFE2020FEF7E7FE00213C
:101C30000E20FEF7F5FE04F13001C8B2FEF7DEFE1D
:101C400000210F20FEF7ECFE7320FEF7D7FE4FF4C5
:101C50007A70FEF711FD012C03D1A1021148FEF7A5
:101C6000FFFD641E002CAFDC18E00FA0FEF7CCFED9
:101C700001210020FEF7D4FE3046FEF7BFFE012111
:101C80000220FEF7CDFE0CA0FEF7BEFE40F2DC50B7
:101C9000FEF7F2FC701EC6B200BF29E600BF00BF0F
:101CA00000BF94E400080140496E636F727265637F
:101CB000742049440000000074696D6520736361FD
:101CC0006E206C6566740000313233413435364223
:101CD000373839432A302344000000004000000018
:101CE00014000000540000003031323334353637F0
:101CF0003839414243444546403058003031323350
:101D0000343536373839616263646566403078004F
:101D100004000008000000000000000200010000B4
:101D200010000000441D00080000002038000000E2
:101D3000280100087C1D000838000020C8060000AB
:101D40004401000831323341B177971D4C00000047
:101D5000000000000000000000191B060C1B13000F
:101D60001818060908090600000000000102030413
:0C1D70000102030406070809020406082B
:04000005080000ED02
:00000001FF
