:100000000C942A000C9447000C9447000C94470071
:100010000C9447000C9447000C9447000C94470044
:100020000C9447000C9447000C9447000C94470034
:100030000C9447000C9447000C9447000C94470024
:100040000C9447000C9447000C9447000C94470014
:100050000C94470011241FBECFE5D8E0DEBFCDBF12
:1000600010E0A0E6B0E0EAEEF6E002C005900D92E6
:10007000A63CB107D9F720E0A6ECB0E001C01D9284
:10008000A93DB207E1F70E9403030C9473030C949B
:100090000000E199FECF9FBB8EBB6DBBE29AE19A57
:1000A0000895EF92FF921F93CF93DF93A4E6B0E001
:1000B0000F2EF6ECEF2EF0E0FF2EF02D24EA30E0CC
:1000C00011E0EC91E43010F5F0E0E05AFF4FE081F0
:1000D000F0E0AF01EA016A9112967C9112971196B5
:1000E0009C9111979723962B988332979081139622
:1000F0008C9113978723892B8083F70111937F01BC
:100100001496A217B307E9F680E001C081E0DF9101
:10011000CF911F91FF90EF9008958031E0F590E02E
:10012000FC01EE0FFF1FEE0FFF1FEC59FF4F228166
:100130002F3F99F5FC01EA53FF4F2081213079F5DB
:10014000611114C0880F991F880F991FFC01EC5989
:10015000FF4FA081B0E0A05ABF4FAC91B0E09C919E
:100160008181809589238C9380E008956F3FC9F445
:10017000880F991F880F991FFC01EC59FF4FA08130
:10018000B0E0A05ABF4FAC91B0E09C918181892B27
:100190008C9380E0089581E0089581E0089581E0E6
:1001A000089580E00895803130F590E0FC01EE0F75
:1001B000FF1FEE0FFF1FEC59FF4F228121111DC0C1
:1001C000FC01EA53FF4F20812130C9F4880F991FA9
:1001D000880F991FFC01EC59FF4FA081B0E0A05A95
:1001E000BF4FAC91B0E012978C9191818923FB01B4
:1001F000808380E0089581E0089581E0089581E0A2
:100200000895CF92DF92EF92FF920F931F93CF93B7
:10021000E12CF12C6FEF80E00E948D006FEF81E008
:100220000E948D006FEF82E00E948D006FEF83E0EF
:100230000E948D0060E08E2D0E948D0004E010E091
:100240000F2EF5E0CF2ED12CF02D05C08FEFC81A60
:10025000D80A0F5F1F4FC02F68ED70E0802F0E94FB
:10026000D3008091D800811151C068ED70E08C2FCF
:100270000E94D3008091D8008823B9F381E0E8166A
:10028000F104E9F024F4E114F10451F03FC082E0FC
:10029000E816F10409F183E0E816F10451F136C0E3
:1002A0000430110509F441C00530110509F43FC0BF
:1002B00006301105F1F10730110541F53CC004305D
:1002C0001105D9F105301105D1F106301105C9F13B
:1002D00007301105D9F437C004301105B1F10530EC
:1002E0001105A9F106301105A1F10730110571F4CE
:1002F00032C00430110589F10530110581F1063055
:10030000110579F10730110581F52DC088E0C81677
:10031000D1040CF49BCF8FEFE81AF80A84E0E816BA
:10032000F10409F077CF86E426C087E324C088E390
:1003300022C089E320C08FE21EC084E31CC085E395
:100340001AC086E318C08AE216C081E314C082E3B3
:1003500012C083E310C08DE20EC08FE30CC080E3B7
:100360000AC08DE308C08BE206C088E0C816D1043D
:100370000CF46CCF86E4CF911F910F91FF90EF901A
:10038000DF90CF900895CF93DF9300D000D0CDB70A
:10039000DEB719821A821B821C82880F991F880F70
:1003A000991FA0E0B0E049815A816B817C81481798
:1003B00059076A077B07ACF449815A816B817C81BC
:1003C0004F5F5F4F6F4F7F4F49835A836B837C83AF
:1003D00049815A816B817C81481759076A077B07DD
:1003E0005CF30F900F900F900F90DF91CF910895D5
:1003F000CF92DF92EF92FF920F931F93CF93DF93F1
:10040000C82F60E088E00E948D0060E089E00E94D3
:100410008D00DC2FD295DF7004EA10E00F2EF8EA91
:10042000EF2EF0E0FF2EF02D68016D2F61706195C9
:10043000D695F60181916F010E948D00EC14FD04A8
:10044000A1F76FEF8AE00E948D0084E690E00E94A1
:10045000C30160E08AE00E948D00CF706C2F617054
:100460006195C695F80181918F010E948D000E154E
:100470001F05A1F76FEF8AE00E948D0084E690E0EF
:100480000E94C30160E08AE00E948D0080ED97E049
:100490000E94C301DF91CF911F910F91FF90EF90C8
:1004A000DF90CF900895CF92DF92EF92FF920F935B
:1004B0001F93CF93DF93C82F6FEF88E00E948D00CA
:1004C00060E089E00E948D00DC2FD295DF7004EAA5
:1004D00010E00F2EF8EAEF2EF0E0FF2EF02D68016D
:1004E0006D2F61706195D695F60181916F010E9423
:1004F0008D00EC14FD04A1F76FEF8AE00E948D00DF
:1005000084E690E00E94C30160E08AE00E948D00D2
:10051000CF706C2F61706195C695F80181918F0144
:100520000E948D000E151F05A1F76FEF8AE00E9453
:100530008D0084E690E00E94C30160E08AE00E94A2
:100540008D008AE090E00E94C301DF91CF911F915E
:100550000F91FF90EF90DF90CF90089588E99AE394
:100560000E94C30183E30E94F80182E30E94F80124
:1005700088E20E94F8018CE00E94F80181E00E946C
:10058000F80181E090E09093D7008093D600089521
:100590002091D6003091D7002130310521F40E94FE
:1005A000530280E0089581E008952091D6003091B3
:1005B000D7002130310561F4672B29F480580E945F
:1005C000F80180E0089580540E94F80180E00895C9
:1005D00081E00895CF93DF93EC018091D600909154
:1005E000D700019751F48881882349F021960E9411
:1005F000530289918111FBCF03C081E001C080E0EB
:10060000DF91CF910895CF93DF9300D000D0CDB785
:10061000DEB70E9451000E94AE0260E070E080E010
:1006200090E00E94D50288EA90E00E94EA0260E031
:100630008AE090E00E94490080E3898381E38A8315
:1006400082E38B8383E38C83CE0101966C0100E00F
:1006500010E0F60161916F01C8010E9449000F5F2F
:100660001F4F04301105A9F761E070E080E090E0D1
:100670000E94D50200E010E0C12CD12CF12CF2E058
:10068000FF1560F10E940101863489F0E1E0F0E09D
:10069000EC0FFD1FEC0DFD1D9081891303C08FEF42
:1006A000C81AD80A0F5F1F4F8AE20E94C80203309F
:1006B000110529F793E0C916D10429F46FEF8FE0F3
:1006C0000E948D00DCCFF3946F2D8AE090E00E94B1
:1006D000490000E010E0C12CD12CD1CF89EB90E093
:0A06E0000E94EA02CCCFF894FFCF8D
:1006EA003B3835320001FFFF0002FFFF0004FFFF25
:1006FA000008FFFF001000FF002000FF004000FF7D
:10070A00008000FF0101FFFF0102FFFF0104FFFF5C
:10071A000108FFFF0110FFFF0120FFFF0140FFFF5B
:10072A000301FFFF0B0C0D0E456E746572205061BC
:10073A007373776F72643A2000446F6F72204C6F44
:06074A00636B6564000012
:00000001FF
